:020000040000FA
:1000000002EF00F0936A060EC16E926A276A286AB0
:10001000806A000E956E0DEF00F0809480968098B7
:10002000808A000E256E27EC00F0836E48EC00F00D
:1000300048EC00F025C026F026422650090E265C2A
:10004000D8B412EF00F02550020F12EF00F0F9269D
:100050003F0C060C5B0C4F0C660C6D0C7D0C270CDA
:100060007F0C6F0C770C7C0C390C5E0C790C710CCE
:10007000020E226E820E236EB20E246E242E3EEFEE
:1000800000F0232E3EEF00F0222E3AEF00F0120097
:10009000040E226EA30E236E1E0E246E242E4EEF2F
:1000A00000F0232E4EEF00F0222E4AEF00F0120057
:020000040030CA
:03000100021E1EBE
:020005008385F1
:060008000FC00FE00F40E5
:00000001FF
