:020000040000FA
:1000000002EF00F010EF00F0000E936EFF0E816E15
:1000100032EC00F0000E816E32EC00F006EF00F0E2
:10002000000E936E010E816E22EC00F0814681AECF
:1000300014EF00F022EC00F0814281A01AEF00F0F2
:1000400014EF00F0020E226E820E236EB20E246EAA
:10005000242E28EF00F0232E28EF00F0222E24EF8C
:1000600000F01200040E226EA30E236E1E0E246EEC
:10007000242E38EF00F0232E38EF00F0222E34EF3C
:0400800000F012007A
:020000040030CA
:03000100021E1EBE
:020005008385F1
:060008000FC00FE00F40E5
:00000001FF
