:020000040000FA
:1000000002EF00F004EF00F0000E956EFF0E836E1D
:1000100032EC00F0000E836E32EC00F006EF00F0E0
:10002000000E956E010E836E22EC00F0834683AEC7
:1000300014EF00F022EC00F0834283A01AEF00F0EE
:1000400014EF00F0020E226E820E236EB20E246EAA
:10005000242E28EF00F0232E28EF00F0222E24EF8C
:1000600000F01200040E226EA30E236E1E0E246EEC
:10007000242E38EF00F0232E38EF00F0222E34EF3C
:0400800000F012007A
:020000040030CA
:04000000130E1E1E9F
:020005008381F5
:060008000FC00FE00F40E5
:00000001FF
