:020000040000FA
:0400000010EF00F00D
:040008006DEF00F0A8
:10002000E00EF26E440ED56EC00ED66EF294F00E57
:10003000936E0F0EC16E006A800E116E0F0E126E5F
:100040000A0E136E0B0E146E000E926E946E956E69
:10005000806EC00E826EC00E836E016A026A47EC2B
:1000600000F07BEC00F01262FAD7D58E51EC00F074
:10007000015002100062FAD7D0EC00F08092D59EB9
:1000800080807BEC00F01462FBD78090E8D77BEC9B
:1000900000F013641200026E000E016ED0EC00F04E
:1000A00012008082D58E7BEC00F01362146264EF44
:1000B00000F08092D59E7BEC00F0116259EF00F0C9
:1000C000D58E808251EF00F013626AEF00F0016A72
:1000D000026A12008082D58E1200C00ED66EF29493
:1000E000000E016204D00206090E016E01D0010665
:1000F000D0EC00F011000F0E816E8150116202D021
:10010000800E1200000E8116818081A802D0010E9F
:10011000120081AA02D0040E120081AC02D0070E98
:10012000120081AE02D00A0E1200000E81168182EA
:1001300081A802D0020E120081AA02D0050E120080
:1001400081AC02D0080E120081AE02D0000E120067
:10015000000E8116818481A802D0030E120081AAAC
:1001600002D0060E120081AC02D0090E120081AE40
:1001700002D00B0E1200000E8116818681A802D0DB
:100180000C0E120081AA02D00D0E120081AC02D01A
:100190000E0E120081AE02D00F0E1200800E120061
:1001A0000150DBEC00F0F5CF82FF0250DBEC00F0F9
:1001B000F5CF83FF1200106E000EF86E010EF76E81
:1001C000D00EF66E1050F62601E3F72A0800120052
:0C01D000C0F9A4B099009282F880900061
:00000001FF
